{
  "transactions": [
    {
      "hash": "0xcc9f551fa610c485eb616a9902b0f64b0c5dbaaa876ff0ad3abdd6b95a2e34d1",
      "transactionType": "CREATE",
      "contractName": "BabyPriceOracle",
      "contractAddress": "0xab0f04ef204db673ddf6a075129d8c2b7f85caae",
      "function": null,
      "arguments": null,
      "transaction": {
        "from": "0x3b4d8ee7d28fe1fa208055cb78515b4bdcf1a207",
        "gas": "0x176bc0",
        "value": "0x0",
        "input": "0x608060405234801561001057600080fd5b50600080546001600160a01b031916339081178255610e1060055581526003602052604090819020805460ff19166001908117909155905160049061006090646343454c4f60d81b815260050190565b908152604051908190036020019020805491151560ff199092169190911790556112c38061008f6000396000f3fe608060405234801561001057600080fd5b506004361061014d5760003560e01c80638ab1d681116100c3578063a84f6ebb1161007c578063a84f6ebb1461036f578063ad9f20a614610378578063e43252d714610382578063fb01e7f214610395578063fc57d4df146103a8578063fdc2679d146103bb57600080fd5b80638ab1d681146102ab5780638da5cb5b146102be5780638edbf436146102e95780639b19251a14610330578063a47084a914610353578063a7eb94991461035c57600080fd5b80635e9a523c116101155780635e9a523c146101e05780635fae05761461020057806366331bba1461022c5780636e8c271b146102345780637cfaa1b31461025d5780637f33780a1461028b57600080fd5b806301c11d961461015257806309a8acb01461017657806317fdb62f1461018b5780632e67af09146101ae57806341976e09146101b7575b600080fd5b61016369d3c21bcecceda100000081565b6040519081526020015b60405180910390f35b610189610184366004610d96565b6103db565b005b61019e610199366004610dc2565b610730565b604051901515815260200161016d565b610163610e1081565b6101636101c5366004610dc2565b6001600160a01b031660009081526001602052604090205490565b6101636101ee366004610dc2565b60016020526000908152604090205481565b61019e61020e366004610dc2565b6001600160a01b031660009081526003602052604090205460ff1690565b61019e600181565b610163610242366004610dc2565b6001600160a01b031660009081526002602052604090205490565b61019e61026b366004610e4e565b805160208183018101805160048252928201919093012091525460ff1681565b610163610299366004610dc2565b60066020526000908152604090205481565b6101896102b9366004610dc2565b610783565b6000546102d1906001600160a01b031681565b6040516001600160a01b03909116815260200161016d565b6102fc6102f7366004610dc2565b610803565b604080516001600160a01b03909616865260ff9094166020860152928401919091526060830152608082015260a00161016d565b61019e61033e366004610dc2565b60036020526000908152604090205460ff1681565b61016361138881565b61018961036a366004610ece565b61085c565b61016360055481565b610163620f424081565b610189610390366004610dc2565b6108f8565b6101896103a3366004610f56565b6109e6565b6101636103b6366004610dc2565b610aa6565b6101636103c9366004610dc2565b60026020526000908152604090205481565b3360009081526003602052604090205460ff1661043f5760405162461bcd60e51b815260206004820181905260248201527f4261627950726963654f7261636c653a204e6f742077686974656c697374656460448201526064015b60405180910390fd5b6000811161049f5760405162461bcd60e51b815260206004820152602760248201527f4261627950726963654f7261636c653a205072696365206d75737420626520706044820152666f73697469766560c81b6064820152608401610436565b620f424081101580156104bc575069d3c21bcecceda10000008111155b61051c5760405162461bcd60e51b815260206004820152602b60248201527f4261627950726963654f7261636c653a205072696365206f7574206f6620676c60448201526a6f62616c20626f756e647360a81b6064820152608401610436565b6001600160a01b038216600090815260026020526040902054156105c2576001600160a01b03821660009081526002602052604090205461056090610e1090610f85565b4210156105c25760405162461bcd60e51b815260206004820152602a60248201527f4261627950726963654f7261636c653a2050726963652075706461746520746f6044820152691bc8199c995c5d595b9d60b21b6064820152608401610436565b6001600160a01b03821660009081526006602052604090205480156106a05760006127106105f261138882610f9d565b6105fc9084610fb4565b6106069190610fd3565b9050600061271061061961138882610f85565b6106239085610fb4565b61062d9190610fd3565b905081841015801561063f5750808411155b61069d5760405162461bcd60e51b815260206004820152602960248201527f4261627950726963654f7261636c653a20507269636520646576696174696f6e604482015268040e8dede40d0d2ced60bb1b6064820152608401610436565b50505b6001600160a01b0383166000818152600160209081526040918290205482519081529081018590529081018490527fdd71a1d19fcba687442a1d5c58578f1e409af71a79d10fd95a4d66efd8fa9ae79060600160405180910390a2506001600160a01b03909116600090815260016020908152604080832084905560068252808320939093556002905220429055565b6001600160a01b03811660009081526002602052604081205461075557506001919050565b6005546001600160a01b03831660009081526002602052604090205461077b9190610f85565b421192915050565b6000546001600160a01b031633146107ad5760405162461bcd60e51b815260040161043690610ff5565b6001600160a01b0381166000818152600360209081526040808320805460ff19169055519182527ff93f9a76c1bf3444d22400a00cb9fe990e6abe9dbb333fda48859cfee864543d91015b60405180910390a250565b600080600080600061081486610b88565b945061081f85610c9e565b6001600160a01b038616600090815260016020526040902054909450925061084684610d2f565b905061085186610aa6565b915091939590929450565b6000546001600160a01b031633146108865760405162461bcd60e51b815260040161043690610ff5565b806004848460405161089992919061102c565b908152604051908190036020018120805492151560ff19909316929092179091557f819948cc2ad205c52aa3816fa52761c70c8e4678b79120708fa044c4e444e036906108eb9085908590859061103c565b60405180910390a1505050565b6000546001600160a01b031633146109225760405162461bcd60e51b815260040161043690610ff5565b6001600160a01b03811661098f5760405162461bcd60e51b815260206004820152602e60248201527f4261627950726963654f7261636c653a2043616e6e6f742077686974656c697360448201526d74207a65726f206164647265737360901b6064820152608401610436565b6001600160a01b038116600081815260036020908152604091829020805460ff1916600190811790915591519182527ff93f9a76c1bf3444d22400a00cb9fe990e6abe9dbb333fda48859cfee864543d91016107f8565b6000546001600160a01b03163314610a105760405162461bcd60e51b815260040161043690610ff5565b60008111610a6b5760405162461bcd60e51b815260206004820152602260248201527f4261627950726963654f7261636c653a20496e76616c6964207468726573686f6044820152611b1960f21b6064820152608401610436565b60058190556040518181527fb2d3f1ec6d37329644a9217d39311dc111ab9fc16f3651213022117170391bef9060200160405180910390a150565b600080610ab283610b88565b90506000610abf82610c9e565b6001600160a01b03831660009081526001602052604090205490915080610b285760405162461bcd60e51b815260206004820152601e60248201527f4261627950726963654f7261636c653a205072696365206e6f742073657400006044820152606401610436565b6000610b3383610d2f565b9050670de0b6b3a7640000811115610b6b57610b57670de0b6b3a764000082610fd3565b610b619083610fb4565b9695505050505050565b670de0b6b3a7640000610b7e8284610fb4565b610b619190610fd3565b6000806004836001600160a01b03166395d89b416040518163ffffffff1660e01b8152600401600060405180830381865afa158015610bcb573d6000803e3d6000fd5b505050506040513d6000823e601f3d908101601f19168201604052610bf391908101906110a4565b604051610c00919061111b565b9081526040519081900360200190205460ff1615610c33575073eeeeeeeeeeeeeeeeeeeeeeeeeeeeeeeeeeeeeeee610c98565b826001600160a01b0316636f307dc36040518163ffffffff1660e01b8152600401602060405180830381865afa158015610c71573d6000803e3d6000fd5b505050506040513d601f19601f82011682018060405250810190610c959190611137565b90505b92915050565b600073eeeeeeeeeeeeeeeeeeeeeeeeeeeeeeeeeeeeeeee6001600160a01b0383161415610ccd57506012919050565b816001600160a01b031663313ce5676040518163ffffffff1660e01b8152600401602060405180830381865afa158015610d0b573d6000803e3d6000fd5b505050506040513d601f19601f82011682018060405250810190610c989190611154565b600060128260ff1610610d4b5750670de0b6b3a7640000919050565b6000610d58836012611177565b9050610d6581600a61127e565b610d7790670de0b6b3a7640000610fb4565b9392505050565b6001600160a01b0381168114610d9357600080fd5b50565b60008060408385031215610da957600080fd5b8235610db481610d7e565b946020939093013593505050565b600060208284031215610dd457600080fd5b8135610d7781610d7e565b634e487b7160e01b600052604160045260246000fd5b604051601f8201601f1916810167ffffffffffffffff81118282101715610e1e57610e1e610ddf565b604052919050565b600067ffffffffffffffff821115610e4057610e40610ddf565b50601f01601f191660200190565b600060208284031215610e6057600080fd5b813567ffffffffffffffff811115610e7757600080fd5b8201601f81018413610e8857600080fd5b8035610e9b610e9682610e26565b610df5565b818152856020838501011115610eb057600080fd5b81602084016020830137600091810160200191909152949350505050565b600080600060408486031215610ee357600080fd5b833567ffffffffffffffff80821115610efb57600080fd5b818601915086601f830112610f0f57600080fd5b813581811115610f1e57600080fd5b876020828501011115610f3057600080fd5b602092830195509350508401358015158114610f4b57600080fd5b809150509250925092565b600060208284031215610f6857600080fd5b5035919050565b634e487b7160e01b600052601160045260246000fd5b60008219821115610f9857610f98610f6f565b500190565b600082821015610faf57610faf610f6f565b500390565b6000816000190483118215151615610fce57610fce610f6f565b500290565b600082610ff057634e487b7160e01b600052601260045260246000fd5b500490565b6020808252601b908201527f4261627950726963654f7261636c653a204f6e6c79206f776e65720000000000604082015260600190565b8183823760009101908152919050565b6040815282604082015282846060830137600060608483018101919091529115156020820152601f909201601f191690910101919050565b60005b8381101561108f578181015183820152602001611077565b8381111561109e576000848401525b50505050565b6000602082840312156110b657600080fd5b815167ffffffffffffffff8111156110cd57600080fd5b8201601f810184136110de57600080fd5b80516110ec610e9682610e26565b81815285602083850101111561110157600080fd5b611112826020830160208601611074565b95945050505050565b6000825161112d818460208701611074565b9190910192915050565b60006020828403121561114957600080fd5b8151610d7781610d7e565b60006020828403121561116657600080fd5b815160ff81168114610d7757600080fd5b600060ff821660ff84168082101561119157611191610f6f565b90039392505050565b600181815b808511156111d55781600019048211156111bb576111bb610f6f565b808516156111c857918102915b93841c939080029061119f565b509250929050565b6000826111ec57506001610c98565b816111f957506000610c98565b816001811461120f576002811461121957611235565b6001915050610c98565b60ff84111561122a5761122a610f6f565b50506001821b610c98565b5060208310610133831016604e8410600b8410161715611258575081810a610c98565b611262838361119a565b806000190482111561127657611276610f6f565b029392505050565b6000610d7760ff8416836111dd56fea2646970667358221220962ed17f6b2fcb1b76b62b608443cae6d880cc638d0148d9be793071a84eeb2b64736f6c634300080a0033",
        "nonce": "0x2",
        "chainId": "0xa4ec"
      },
      "additionalContracts": [],
      "isFixedGasLimit": false
    },
    {
      "hash": "0x4aba8075960d2ee5749217275e5c31b13e90c4f969eab5ffea6b67a074e769eb",
      "transactionType": "CALL",
      "contractName": "BabyPriceOracle",
      "contractAddress": "0xab0f04ef204db673ddf6a075129d8c2b7f85caae",
      "function": "setDirectPrice(address,uint256)",
      "arguments": [
        "0xEeeeeEeeeEeEeeEeEeEeeEEEeeeeEeeeeeeeEEeE",
        "75000000000000000"
      ],
      "transaction": {
        "from": "0x3b4d8ee7d28fe1fa208055cb78515b4bdcf1a207",
        "to": "0xab0f04ef204db673ddf6a075129d8c2b7f85caae",
        "gas": "0x1f66a",
        "value": "0x0",
        "input": "0x09a8acb0000000000000000000000000eeeeeeeeeeeeeeeeeeeeeeeeeeeeeeeeeeeeeeee000000000000000000000000000000000000000000000000010a741a46278000",
        "nonce": "0x3",
        "chainId": "0xa4ec"
      },
      "additionalContracts": [],
      "isFixedGasLimit": false
    },
    {
      "hash": "0xebed27b74d31db179943916f70ca1ae7c83f4048f555a9d5836d68500021edd3",
      "transactionType": "CALL",
      "contractName": "BabyPriceOracle",
      "contractAddress": "0xab0f04ef204db673ddf6a075129d8c2b7f85caae",
      "function": "setDirectPrice(address,uint256)",
      "arguments": [
        "0x48065fbBE25f71C9282ddf5e1cD6D6A887483D5e",
        "1000000000000000000"
      ],
      "transaction": {
        "from": "0x3b4d8ee7d28fe1fa208055cb78515b4bdcf1a207",
        "to": "0xab0f04ef204db673ddf6a075129d8c2b7f85caae",
        "gas": "0x213e7",
        "value": "0x0",
        "input": "0x09a8acb000000000000000000000000048065fbbe25f71c9282ddf5e1cd6d6a887483d5e0000000000000000000000000000000000000000000000000de0b6b3a7640000",
        "nonce": "0x4",
        "chainId": "0xa4ec"
      },
      "additionalContracts": [],
      "isFixedGasLimit": false
    },
    {
      "hash": "0x909b588e44d9dc7cb9fc8174e0cf426e307975908ad7216f9fbf25b1f6461bff",
      "transactionType": "CALL",
      "contractName": "BabyPriceOracle",
      "contractAddress": "0xab0f04ef204db673ddf6a075129d8c2b7f85caae",
      "function": "setDirectPrice(address,uint256)",
      "arguments": [
        "0xE370336C3074E76163b2f9B07876d0Cb3425488D",
        "7500000000000"
      ],
      "transaction": {
        "from": "0x3b4d8ee7d28fe1fa208055cb78515b4bdcf1a207",
        "to": "0xab0f04ef204db673ddf6a075129d8c2b7f85caae",
        "gas": "0x1f649",
        "value": "0x0",
        "input": "0x09a8acb0000000000000000000000000e370336c3074e76163b2f9b07876d0cb3425488d000000000000000000000000000000000000000000000000000006d23ad5f800",
        "nonce": "0x5",
        "chainId": "0xa4ec"
      },
      "additionalContracts": [],
      "isFixedGasLimit": false
    }
  ],
  "receipts": [
    {
      "status": "0x1",
      "cumulativeGasUsed": "0x1e964f",
      "logs": [],
      "logsBloom": "0x00000000000000000000000000000000000000000000000000000000000000000000000000000000000000000000000000000000000000000000000000000000000000000000000000000000000000000000000000000000000000000000000000000000000000000000000000000000000000000000000000000000000000000000000000000000000000000000000000000000000000000000000000000000000000000000000000000000000000000000000000000000000000000000000000000000000000000000000000000000000000000000000000000000000000000000000000000000000000000000000000000000000000000000000000000000",
      "type": "0x0",
      "transactionHash": "0xcc9f551fa610c485eb616a9902b0f64b0c5dbaaa876ff0ad3abdd6b95a2e34d1",
      "transactionIndex": "0x7",
      "blockHash": "0x0eb56b30b95b35a5cf374bf01300a9501dedfba9767c9dbf6afb5c4f7a685fa9",
      "blockNumber": "0x3aa0053",
      "gasUsed": "0x120554",
      "effectiveGasPrice": "0x66720b300",
      "from": "0x3b4d8ee7d28fe1fa208055cb78515b4bdcf1a207",
      "to": null,
      "contractAddress": "0xab0f04ef204db673ddf6a075129d8c2b7f85caae",
      "l1BaseFeeScalar": "0x0",
      "l1BlobBaseFee": "0x1071d1d6ba589",
      "l1BlobBaseFeeScalar": "0x0",
      "l1Fee": "0x0",
      "l1GasPrice": "0x1dd4f4a",
      "l1GasUsed": "0xaef0"
    },
    {
      "status": "0x1",
      "cumulativeGasUsed": "0x20020d",
      "logs": [
        {
          "address": "0xab0f04ef204db673ddf6a075129d8c2b7f85caae",
          "topics": [
            "0xdd71a1d19fcba687442a1d5c58578f1e409af71a79d10fd95a4d66efd8fa9ae7",
            "0x000000000000000000000000eeeeeeeeeeeeeeeeeeeeeeeeeeeeeeeeeeeeeeee"
          ],
          "data": "0x0000000000000000000000000000000000000000000000000000000000000000000000000000000000000000000000000000000000000000010a741a46278000000000000000000000000000000000000000000000000000010a741a46278000",
          "blockHash": "0x0eb56b30b95b35a5cf374bf01300a9501dedfba9767c9dbf6afb5c4f7a685fa9",
          "blockNumber": "0x3aa0053",
          "transactionHash": "0x4aba8075960d2ee5749217275e5c31b13e90c4f969eab5ffea6b67a074e769eb",
          "transactionIndex": "0x8",
          "logIndex": "0xf",
          "removed": false
        }
      ],
      "logsBloom": "0x00000000000000000000000000000000000000000000000000000000000000000000000000000000000000040000000000000000000000000010000000000000000000000000000000000020004000000000000000000000000000000000000000000000000000000000000000000000000000000000000000000000000000000000000000000000000000000000000000000000000000000000000000000000000000000000000000000000000000000000000000000000000000200000000000000000000000000000000000100000000000000000000000000000001000000000000000000000000000000000008000000000000000000100000000000000",
      "type": "0x0",
      "transactionHash": "0x4aba8075960d2ee5749217275e5c31b13e90c4f969eab5ffea6b67a074e769eb",
      "transactionIndex": "0x8",
      "blockHash": "0x0eb56b30b95b35a5cf374bf01300a9501dedfba9767c9dbf6afb5c4f7a685fa9",
      "blockNumber": "0x3aa0053",
      "gasUsed": "0x16bbe",
      "effectiveGasPrice": "0x66720b300",
      "from": "0x3b4d8ee7d28fe1fa208055cb78515b4bdcf1a207",
      "to": "0xab0f04ef204db673ddf6a075129d8c2b7f85caae",
      "contractAddress": null,
      "l1BaseFeeScalar": "0x0",
      "l1BlobBaseFee": "0x1071d1d6ba589",
      "l1BlobBaseFeeScalar": "0x0",
      "l1Fee": "0x0",
      "l1GasPrice": "0x1dd4f4a",
      "l1GasUsed": "0x640"
    },
    {
      "status": "0x1",
      "cumulativeGasUsed": "0x216dbf",
      "logs": [
        {
          "address": "0xab0f04ef204db673ddf6a075129d8c2b7f85caae",
          "topics": [
            "0xdd71a1d19fcba687442a1d5c58578f1e409af71a79d10fd95a4d66efd8fa9ae7",
            "0x00000000000000000000000048065fbbe25f71c9282ddf5e1cd6d6a887483d5e"
          ],
          "data": "0x00000000000000000000000000000000000000000000000000000000000000000000000000000000000000000000000000000000000000000de0b6b3a76400000000000000000000000000000000000000000000000000000de0b6b3a7640000",
          "blockHash": "0x0eb56b30b95b35a5cf374bf01300a9501dedfba9767c9dbf6afb5c4f7a685fa9",
          "blockNumber": "0x3aa0053",
          "transactionHash": "0xebed27b74d31db179943916f70ca1ae7c83f4048f555a9d5836d68500021edd3",
          "transactionIndex": "0x9",
          "logIndex": "0x10",
          "removed": false
        }
      ],
      "logsBloom": "0x00000000000000000000000000000000000000000000000000000000000000000000000800000000000000040000000000000000000000000000000000000000000000000000000000000020004000000000000000000000000000000000000000000000000000000000000000000000000000000000000000000000000000000000000000000000000000000000000000000000000000000000000000000000000000000001000000000000000000001000000000000000000000000000000000000000000000000000000000000000000000000000000000000000001000000000000000000000000000000000008000000000000000000100000000000000",
      "type": "0x0",
      "transactionHash": "0xebed27b74d31db179943916f70ca1ae7c83f4048f555a9d5836d68500021edd3",
      "transactionIndex": "0x9",
      "blockHash": "0x0eb56b30b95b35a5cf374bf01300a9501dedfba9767c9dbf6afb5c4f7a685fa9",
      "blockNumber": "0x3aa0053",
      "gasUsed": "0x16bb2",
      "effectiveGasPrice": "0x66720b300",
      "from": "0x3b4d8ee7d28fe1fa208055cb78515b4bdcf1a207",
      "to": "0xab0f04ef204db673ddf6a075129d8c2b7f85caae",
      "contractAddress": null,
      "l1BaseFeeScalar": "0x0",
      "l1BlobBaseFee": "0x1071d1d6ba589",
      "l1BlobBaseFeeScalar": "0x0",
      "l1Fee": "0x0",
      "l1GasPrice": "0x1dd4f4a",
      "l1GasUsed": "0x640"
    },
    {
      "status": "0x1",
      "cumulativeGasUsed": "0x22d965",
      "logs": [
        {
          "address": "0xab0f04ef204db673ddf6a075129d8c2b7f85caae",
          "topics": [
            "0xdd71a1d19fcba687442a1d5c58578f1e409af71a79d10fd95a4d66efd8fa9ae7",
            "0x000000000000000000000000e370336c3074e76163b2f9b07876d0cb3425488d"
          ],
          "data": "0x0000000000000000000000000000000000000000000000000000000000000000000000000000000000000000000000000000000000000000000006d23ad5f800000000000000000000000000000000000000000000000000000006d23ad5f800",
          "blockHash": "0x0eb56b30b95b35a5cf374bf01300a9501dedfba9767c9dbf6afb5c4f7a685fa9",
          "blockNumber": "0x3aa0053",
          "transactionHash": "0x909b588e44d9dc7cb9fc8174e0cf426e307975908ad7216f9fbf25b1f6461bff",
          "transactionIndex": "0xa",
          "logIndex": "0x11",
          "removed": false
        }
      ],
      "logsBloom": "0x00000000000000000000000000000000000000000000000000000000000000000000000000000000000000040000000000000000000000000000000000000000000100000000000000000020004000000000000000000000000000000000000000000000000000000000000000000000000000000000000000000000000000000000000000000000000000000000000000000000000000000000000000000000000000000000000000000000000000000000000000000002000000000000000000000000000000000000000000000000000000000000020000000000001000000000000000000000000000000000008000000000000000000100000000000000",
      "type": "0x0",
      "transactionHash": "0x909b588e44d9dc7cb9fc8174e0cf426e307975908ad7216f9fbf25b1f6461bff",
      "transactionIndex": "0xa",
      "blockHash": "0x0eb56b30b95b35a5cf374bf01300a9501dedfba9767c9dbf6afb5c4f7a685fa9",
      "blockNumber": "0x3aa0053",
      "gasUsed": "0x16ba6",
      "effectiveGasPrice": "0x66720b300",
      "from": "0x3b4d8ee7d28fe1fa208055cb78515b4bdcf1a207",
      "to": "0xab0f04ef204db673ddf6a075129d8c2b7f85caae",
      "contractAddress": null,
      "l1BaseFeeScalar": "0x0",
      "l1BlobBaseFee": "0x1071d1d6ba589",
      "l1BlobBaseFeeScalar": "0x0",
      "l1Fee": "0x0",
      "l1GasPrice": "0x1dd4f4a",
      "l1GasUsed": "0x640"
    }
  ],
  "libraries": [],
  "pending": [],
  "returns": {},
  "timestamp": 1773373620,
  "chain": 42220,
  "commit": "33c2e27"
}